{
  "transactions": [
    {
      "hash": "0x0a70d6b8c53402e70c0ad0f29dee855f5de3006de76825be859dbb8e2f090df7",
      "transactionType": "CALL",
      "contractName": null,
      "contractAddress": "0x4Dd5336F3C0D70893A7a86c6aEBe9B953E87c891",
      "function": "swapAndSend(address)",
      "arguments": [
        "0x2Da0F33BB8e9352e226457a63C4A22F877446aD8"
      ],
      "transaction": {
        "type": "0x02",
        "from": "0xf39fd6e51aad88f6f4ce6ab8827279cfffb92266",
        "to": "0x4dd5336f3c0d70893a7a86c6aebe9b953e87c891",
        "gas": "0x2c68a",
        "value": "0x56bc75e2d63100000",
        "data": "0xc15833920000000000000000000000002da0f33bb8e9352e226457a63c4a22f877446ad8",
        "nonce": "0x27b",
        "accessList": []
      },
      "additionalContracts": [],
      "isFixedGasLimit": false
    }
  ],
  "receipts": [
    {
      "transactionHash": "0x0a70d6b8c53402e70c0ad0f29dee855f5de3006de76825be859dbb8e2f090df7",
      "transactionIndex": "0x0",
      "blockHash": "0xdcd992c96185b4b93ea752c71b34cabefe24f2c78f47fc6633de50cbbca3a48c",
      "blockNumber": "0x12a8953",
      "from": "0xf39Fd6e51aad88F6F4ce6aB8827279cffFb92266",
      "to": "0x4Dd5336F3C0D70893A7a86c6aEBe9B953E87c891",
      "cumulativeGasUsed": "0x222f9",
      "gasUsed": "0x222f9",
      "contractAddress": null,
      "logs": [
        {
          "address": "0xC02aaA39b223FE8D0A0e5C4F27eAD9083C756Cc2",
          "topics": [
            "0xe1fffcc4923d04b559f4d29a8bfc6cda04eb5b0d3c460751c2402c5c5cc9109c",
            "0x0000000000000000000000007a250d5630b4cf539739df2c5dacb4c659f2488d"
          ],
          "data": "0x0000000000000000000000000000000000000000000000056bc75e2d63100000",
          "blockHash": "0xdcd992c96185b4b93ea752c71b34cabefe24f2c78f47fc6633de50cbbca3a48c",
          "blockNumber": "0x12a8953",
          "transactionHash": "0x0a70d6b8c53402e70c0ad0f29dee855f5de3006de76825be859dbb8e2f090df7",
          "transactionIndex": "0x0",
          "logIndex": "0x0",
          "removed": false
        },
        {
          "address": "0xC02aaA39b223FE8D0A0e5C4F27eAD9083C756Cc2",
          "topics": [
            "0xddf252ad1be2c89b69c2b068fc378daa952ba7f163c4a11628f55a4df523b3ef",
            "0x0000000000000000000000007a250d5630b4cf539739df2c5dacb4c659f2488d",
            "0x000000000000000000000000b4e16d0168e52d35cacd2c6185b44281ec28c9dc"
          ],
          "data": "0x0000000000000000000000000000000000000000000000056bc75e2d63100000",
          "blockHash": "0xdcd992c96185b4b93ea752c71b34cabefe24f2c78f47fc6633de50cbbca3a48c",
          "blockNumber": "0x12a8953",
          "transactionHash": "0x0a70d6b8c53402e70c0ad0f29dee855f5de3006de76825be859dbb8e2f090df7",
          "transactionIndex": "0x0",
          "logIndex": "0x1",
          "removed": false
        },
        {
          "address": "0xA0b86991c6218b36c1d19D4a2e9Eb0cE3606eB48",
          "topics": [
            "0xddf252ad1be2c89b69c2b068fc378daa952ba7f163c4a11628f55a4df523b3ef",
            "0x000000000000000000000000b4e16d0168e52d35cacd2c6185b44281ec28c9dc",
            "0x0000000000000000000000004dd5336f3c0d70893a7a86c6aebe9b953e87c891"
          ],
          "data": "0x0000000000000000000000000000000000000000000000000000004f68148fe2",
          "blockHash": "0xdcd992c96185b4b93ea752c71b34cabefe24f2c78f47fc6633de50cbbca3a48c",
          "blockNumber": "0x12a8953",
          "transactionHash": "0x0a70d6b8c53402e70c0ad0f29dee855f5de3006de76825be859dbb8e2f090df7",
          "transactionIndex": "0x0",
          "logIndex": "0x2",
          "removed": false
        },
        {
          "address": "0xB4e16d0168e52d35CaCD2c6185b44281Ec28C9Dc",
          "topics": [
            "0x1c411e9a96e071241c2f21f7726b17ae89e3cab4c78be50e062b03a9fffbbad1"
          ],
          "data": "0x0000000000000000000000000000000000000000000000000000294b32ed98060000000000000000000000000000000000000000000002d4f11276a875dd0620",
          "blockHash": "0xdcd992c96185b4b93ea752c71b34cabefe24f2c78f47fc6633de50cbbca3a48c",
          "blockNumber": "0x12a8953",
          "transactionHash": "0x0a70d6b8c53402e70c0ad0f29dee855f5de3006de76825be859dbb8e2f090df7",
          "transactionIndex": "0x0",
          "logIndex": "0x3",
          "removed": false
        },
        {
          "address": "0xB4e16d0168e52d35CaCD2c6185b44281Ec28C9Dc",
          "topics": [
            "0xd78ad95fa46c994b6551d0da85fc275fe613ce37657fb8d5e3d130840159d822",
            "0x0000000000000000000000007a250d5630b4cf539739df2c5dacb4c659f2488d",
            "0x0000000000000000000000004dd5336f3c0d70893a7a86c6aebe9b953e87c891"
          ],
          "data": "0x00000000000000000000000000000000000000000000000000000000000000000000000000000000000000000000000000000000000000056bc75e2d631000000000000000000000000000000000000000000000000000000000004f68148fe20000000000000000000000000000000000000000000000000000000000000000",
          "blockHash": "0xdcd992c96185b4b93ea752c71b34cabefe24f2c78f47fc6633de50cbbca3a48c",
          "blockNumber": "0x12a8953",
          "transactionHash": "0x0a70d6b8c53402e70c0ad0f29dee855f5de3006de76825be859dbb8e2f090df7",
          "transactionIndex": "0x0",
          "logIndex": "0x4",
          "removed": false
        },
        {
          "address": "0xA0b86991c6218b36c1d19D4a2e9Eb0cE3606eB48",
          "topics": [
            "0xddf252ad1be2c89b69c2b068fc378daa952ba7f163c4a11628f55a4df523b3ef",
            "0x0000000000000000000000004dd5336f3c0d70893a7a86c6aebe9b953e87c891",
            "0x0000000000000000000000002da0f33bb8e9352e226457a63c4a22f877446ad8"
          ],
          "data": "0x0000000000000000000000000000000000000000000000000000004f68148fe2",
          "blockHash": "0xdcd992c96185b4b93ea752c71b34cabefe24f2c78f47fc6633de50cbbca3a48c",
          "blockNumber": "0x12a8953",
          "transactionHash": "0x0a70d6b8c53402e70c0ad0f29dee855f5de3006de76825be859dbb8e2f090df7",
          "transactionIndex": "0x0",
          "logIndex": "0x5",
          "removed": false
        }
      ],
      "status": "0x1",
      "logsBloom": "0x1020400000000000000000008000000000000000000000000001000000000000000000000000000000000000000000000200000008000000000000000000000000000000000000000c000008000000600000000000000000000000008000000000000000000000000000000000000000020000000000000000000010000000000000000000000000004000000000000000008001010000080000004000000000000000000000200200000000000000000000000000000000000000000000000000000002000080000000000000000000000000000000001000000000000020000008200000004000800000000000000000000000000000400000000000000000",
      "type": "0x2",
      "effectiveGasPrice": "0x4132653c6"
    }
  ],
  "libraries": [],
  "pending": [],
  "returns": {},
  "timestamp": 1712022742,
  "chain": 1337,
  "commit": "a74035f"
}